{
  "result": {
    "txid": "%s",
    "hash": "%s",
    "version": 1,
    "size": 374,
    "vsize": 374,
    "weight": 1496,
    "locktime": 0,
    "vin": [
      {
        "txid": "c88f369cfe24e402eafd97c7318183ed780baa3b92a3459fc161eb9472ea532b",
        "vout": 1,
        "scriptSig": {
          "asm": "3045022100acc3143388da78db06726c89f5c05a2e25560e6df27ff0df1918f6e1f12629b202205ab9ae4b639742450f64e2014eadd6433d269f0d37a3c3fdad2b19076e546ab7[ALL] 034a506701c7698e39a20f3de3f81b76c623ee7530ccac43465ea69f73c6fbe444",
          "hex": "483045022100acc3143388da78db06726c89f5c05a2e25560e6df27ff0df1918f6e1f12629b202205ab9ae4b639742450f64e2014eadd6433d269f0d37a3c3fdad2b19076e546ab70121034a506701c7698e39a20f3de3f81b76c623ee7530ccac43465ea69f73c6fbe444"
        },
        "sequence": 4294967295
      },
      {
        "txid": "7b0734be5256ccee9bbe82a35c9e38f31b6b2a15b8433a3d3fd86ab4d7e755c5",
        "vout": 1,
        "scriptSig": {
          "asm": "3045022100bf63e952641d061c4f0d65bc3755d7fec7b503f85f05b38661833ee2089d2587022001e6664c10abd94462ecaa6696ed4d9ab7b48d6e5bd13c06dd3348ac00992202[ALL] 03fc4d38d770cacce092809eee44433dcca0d75286ff7cfddb267bd777485bf0d0",
          "hex": "483045022100bf63e952641d061c4f0d65bc3755d7fec7b503f85f05b38661833ee2089d2587022001e6664c10abd94462ecaa6696ed4d9ab7b48d6e5bd13c06dd3348ac00992202012103fc4d38d770cacce092809eee44433dcca0d75286ff7cfddb267bd777485bf0d0"
        },
        "sequence": 4294967295
      }
    ],
    "vout": [
      {
        "value": 25.00000000,
        "n": 0,
        "scriptPubKey": {
          "asm": "OP_DUP OP_HASH160 b5f0f59ed466f998aae81497a2b895e89525d988 OP_EQUALVERIFY OP_CHECKSIG",
          "hex": "76a914b5f0f59ed466f998aae81497a2b895e89525d98888ac",
          "reqSigs": 1,
          "type": "pubkeyhash",
          "addresses": [
            "1Hb1xsuhehKYcvkTRjWUxkF4Lh75kifZZh"
          ]
        }
      },
      {
        "value": 0.09881791,
        "n": 1,
        "scriptPubKey": {
          "asm": "OP_DUP OP_HASH160 d3a9ea24ce1a4448a03abcc8ea50eb8f8d571f17 OP_EQUALVERIFY OP_CHECKSIG",
          "hex": "76a914d3a9ea24ce1a4448a03abcc8ea50eb8f8d571f1788ac",
          "reqSigs": 1,
          "type": "pubkeyhash",
          "addresses": [
            "1LJB8MNgNwhZ7KJPjUadSdv4eboreNoybS"
          ]
        }
      }
    ],
    "hex": "01000000022b53ea7294eb61c19f45a3923baa0b78ed838131c797fdea02e424fe9c368fc8010000006b483045022100acc3143388da78db06726c89f5c05a2e25560e6df27ff0df1918f6e1f12629b202205ab9ae4b639742450f64e2014eadd6433d269f0d37a3c3fdad2b19076e546ab70121034a506701c7698e39a20f3de3f81b76c623ee7530ccac43465ea69f73c6fbe444ffffffffc555e7d7b46ad83f3d3a43b8152a6b1bf3389e5ca382be9beecc5652be34077b010000006b483045022100bf63e952641d061c4f0d65bc3755d7fec7b503f85f05b38661833ee2089d2587022001e6664c10abd94462ecaa6696ed4d9ab7b48d6e5bd13c06dd3348ac00992202012103fc4d38d770cacce092809eee44433dcca0d75286ff7cfddb267bd777485bf0d0ffffffff0200f90295000000001976a914b5f0f59ed466f998aae81497a2b895e89525d98888acbfc89600000000001976a914d3a9ea24ce1a4448a03abcc8ea50eb8f8d571f1788ac00000000",
    "blockhash": "000000000000000009373aa35a5750f1790a7b49b44969527336ea1bae2ccb47",
    "confirmations": 46413,
    "time": 1436514516,
    "blocktime": 1436514516
  },
  "error": null,
  "id": "2"
}